:020000040800F2
:10000000C00B0020450100081F420008A11B00088A
:100010001D420008B90400088144000800000000E7
:100020000000000000000000000000002342000863
:10003000BB040008000000002142000845420008FF
:100040005F0100085F0100085F0100085F01000810
:100050005F0100085F0100085F0100085F01000800
:100060005F010008310600085F0100085F01000819
:100070005F0100085F0100085F0100085F010008E0
:100080005F0100085F010008D90300085F01000854
:100090005F0100085F0100085F0100085F010008C0
:1000A0005F0100085F0100085F0100085F010008B0
:1000B0005F010008C54200085F0100085F010008F9
:1000C0005F0100085F0100085F0100085F01000890
:1000D0005F0100085F0100085F0100085F01000880
:1000E0005F0100085F0100085F0100085F01000870
:1000F0005F0100085F0100085F0100085F01000860
:100100005F0100085F0100085F0100085F0100084F
:100110005F0100085F0100085F0100085F0100083F
:100120005F0100085F0100085F0100085F0100082F
:10013000DFF80CD000F03EF900480047C144000849
:10014000C00B00200648804706480047FEE7FEE750
:10015000FEE7FEE7FEE7FEE7FEE7FEE7FEE7FEE777
:10016000C342000831010008202A04DB203A21FAAA
:1001700002F00021704721FA02F3D040C2F12002C0
:100180009140084319467047D2B201E000F8012BB4
:10019000491EFBD270470022F6E710B513460A4607
:1001A00004461946FFF7F0FF204610BD2DE9FE4F2B
:1001B00081EA030404F0004421F0004100944FF070
:1001C000000B23F0004350EA01045ED052EA03041E
:1001D0005BD0C3F30A54C1F30A552C44A4F2F334A0
:1001E0000194A0FB0254C1F3130141F48011C3F345
:1001F000130343F4801301FB024400FB034E840A03
:10020000970A44EA815447EA8357A4FB076802959A
:100210008D0A05FB07854FEA932C04FB0C54270538
:10022000029D4FEA065847EA1637B5EB08056EEB14
:10023000070C870E920E47EA811742EA8312A7FB4A
:100240000201B6EB0B0164EB00042B0D43EA0C3307
:100250005E1844EB1C50DA465146E7FB0201C5F339
:1002600013044FEA0B3343EA14534FEA0432019C60
:1002700043EA0603A4F10C040294009CCDE900B407
:1002800000F04AF803B0BDE8F08F00200146F9E71E
:100290000EB540F2334102910021CDE900110A462A
:1002A0000B4600F039F803B000BDC1F30A5210B597
:1002B000C1F3130140F2FF3341F480119A4201DA95
:1002C000002010BD40F233439A42A2F2334203DCD5
:1002D0005242FFF749FF10BD904010BD202A04DBB9
:1002E000203A00FA02F1002070479140C2F1200349
:1002F00020FA03F319439040704710B5141E73F1B0
:10030000000408DA401C41F1000192185B411A43D5
:1003100001D120F0010010BD2DE9F04D92469B4621
:1003200011B1B1FA81F202E0B0FA80F220329046C7
:10033000FFF7D4FF04460F4640EA0A0041EA0B01EA
:1003400053465A46084313D0114653EA010019D0C8
:10035000C8F140025046FFF707FF05460E465046DB
:1003600059464246FFF7BAFF084305D0012004E092
:1003700020463946BDE8F08D0020054346EAE07688
:100380002C4337430A986305E40AA0EB08000022D7
:10039000FD0A44EA47540A3002D500200146E9E745
:1003A000010510196941DDE9084500196941BDE8F9
:1003B000F04DA2E7064C074D06E0E06840F001036F
:1003C00094E8070098471034AC42F6D3FFF7B4FE28
:1003D000F067000810680008014800F03BBA000010
:1003E0006406002070B5044600688168C943C907E7
:1003F00017D1816821F00101816000F059FD0546A7
:100400000AE000BF00F054FD401B022804D9206818
:100410008068C043C00706D020688068C043C0071A
:10042000F0D0002070BDA06A40F01000A062E06A29
:1004300040F00100E062012070BD0000F8B5002628
:100440000446009600688168C943C9072DD08168B9
:1004500041F001018160164816490068B0FBF1F0D7
:1004600000E0401E00900028FBD100F021FD054671
:1004700016E000BF00F01CFD401B022810D92068C8
:100480008068C043C0070BD0A06A40F01000A06293
:10049000E06A40F00100E06284F824600120F8BDC9
:1004A00020688068C043C007E4D10020F8BD000088
:1004B0001C00002040420F00FEE7704710B50446C4
:1004C0000A4801F065F90948002102685162042CCC
:1004D00001D9A41E00E001240068A1B2426A8A4248
:1004E000FCD3BDE81040014801F0BAB92407002050
:1004F0002DE9F841154F06464FF6FF70322438803B
:1005000004254FF44878A2B2A0B2334600210095EA
:1005100001F0BCFB32344445F5DB322407E0A3B2E2
:10052000A1B242460020009501F0B0FB3234B44243
:10053000F5DB4FF478403880334601B04246BDE8E1
:10054000F0411946002001F0F3BB0000200000201C
:10055000FCB5294D4FF478401824288027A0CDE918
:10056000004023463C224FF4B471002003F0DDFC30
:1005700024A0CDE9004018233C2240F28111002044
:1005800003F0D3FC21A0CDE900404FF4CD77182330
:1005900030223946002003F0C8FC1EA0CDE90040FF
:1005A00040F2B316182390223146002003F0BDFC20
:1005B0001F2028801BA0CDE90040182324223146AB
:1005C000BE2003F0B2FC18A0CDE9004018231A4663
:1005D00039466E2003F0A9FC4FF6FF702880134DBA
:1005E000288800F0A7F8C3B200942A8831469120E9
:1005F00003F060FCFCBD00002000002054696D6524
:100600003A000000467265713A00000056706B3A7D
:100610000000000053616D706C6520526174653A92
:10062000000000004B487A006D56000002000020D8
:10063000082000F02FBB000001221146014800F005
:1006400031BC0000000C014072B6FEE730B5B3F5D6
:10065000804F05D06FF0704140F82210002030BD6F
:100660008C690B688D6823434C688989240144EAAE
:100670000524234343EA014150F82230014C234032
:100680001943E9E70000F0CF10B50A6850F82230AE
:1006900023F0010340F822308C68082C23D000237B
:1006A0004A682243CC681C430B6922431A434B69B6
:1006B0000E4C1A43CB691A430B6A1A434B6A1A430E
:1006C0008B6A1A43CB6A1A430B6B1A438B69134329
:1006D0004A6B09681A4350F82130A343134340F88A
:1006E0002130002010BD4023DAE700007FFF0F001B
:1006F00030B5D1E9003443EA04138C688D892402B3
:1007000044EA054423430C8A094D00EB820005EBC3
:10071000045423430C7D6D0105EB04648969234374
:100720000B43416801F040410B434360002030BD62
:100730000000F0FF48B100215FF00A0290FBF2F0E8
:10074000491C0028FAD108467047012070477047BD
:10075000F8B50024009490F824202546012A12D0F0
:10076000012280F824204A681F23072A0DD2066838
:10077000776B521E02EB820293409F430B689340BB
:100780001F43776319E00220F8BD06680D2A0AD2DC
:10079000376BD21F02EB820293409F430B6893405A
:1007A0001F43376309E0F76A0D3A02EB8202934078
:1007B0009F430B6893401F43F7620A68072306684C
:1007C0000A2A0AD3F7680A3A02EB420293409F438F
:1007D0008B6893401F43F76008E0376902EB4202E1
:1007E00093409F438B6893401F4337610A68102AE8
:1007F00001D0112A20D1124B02689A4217D1936876
:100800001B0219D4936843F400039360096810290C
:1008100012D10C490C4A0968B1FBF2F101EB8101DC
:10082000490000E0491E00910029FBD104E0816AE3
:1008300041F020018162012480F824502046F8BD57
:10084000002401401C00002040420F007047006857
:10085000C06C704710B5044600684168890626D50B
:100860000168890723D5A16AC90603D4A16A41F4A6
:100870000071A1628168C1F34241072910D1217B37
:1008800071B9416821F020014160A06A20F48070B4
:10089000A062A06AC00403D4A06A40F00100A06274
:1008A0002046FFF7D3FF21686FF012000860206830
:1008B000416809062ED5016849072BD5A16AC906EA
:1008C00003D4A16A41F40051A1628168C1F30231ED
:1008D000072909D04168490515D48168C1F342410F
:1008E000072910D1217B71B9416821F08001416055
:1008F000A06A20F48050A062A06AC00503D4A06A58
:1009000040F00100A0622046FFF721FF21686FF050
:100910000C0008602068416849060DD50068C007D2
:100920000AD0A06A40F48030A062204600F098F817
:1009300021686FF00100086010BD00002DE9F04152
:1009400004004FF0000514D0A06A002628B9E66222
:1009500084F82460204600F085F82046FFF742FD29
:10096000A16A01F01001014304D0A06A40F0100018
:10097000A0626BE0A16A21F4885141F00201A162FA
:10098000334923688B42E16904D1B1F5402F01D18D
:100990004FF40021277B4FF4807C41EA47026168D5
:1009A0000A43A168614509D0012907D05FF0000121
:1009B00094F814E0BEF1010F02D00AE06146F7E7B7
:1009C000C7B1A76A47F02007A762E76A47F00107A7
:1009D000E7625F6827F469470F435F60236899689F
:1009E0001C4F394011439960A16861450BD0012922
:1009F00009D00CE0DFF860E0A7690EEB47370F4342
:100A000047F40061E5E7218A0D05A5F58015216809
:100A1000CB6A23F470032B43CB62216889680F4BA8
:100A20001940914208D1E662A16A21F0020141F029
:100A30000101A162BDE8F081A06A20F0020040F04F
:100A40001000A062E06A40F00100E0620120F1E7DE
:100A5000003C0140FDF7E1FF00E0FFFFFE0E1FFF3D
:100A60007047000000B585B000210091019102910E
:100A7000039100681249884220D11248816941F4EB
:100A800000718161816901F400710491816941F013
:100A9000040181618069694600F00400049001202E
:100AA000009003200190084800F000F90022114650
:100AB000122000F069FA122000F058FA05B000BDCB
:100AC00000240140001002400008014070B50446B7
:100AD00090F8240001280DD0012084F8240020463D
:100AE000FFF7ACFC02004FF0000005D084F82400B2
:100AF000104670BD022070BDA16A40F201239943E7
:100B000041F48071A1621F4D23681F49AB4218D187
:100B10000E6816F4702F14D0A66A46F48016A662EA
:100B20000E68760505D5A66A26F4005646F480566A
:100B3000A662A66AF6040AD5E66A26F00606E6620A
:100B400006E0A66A26F48016A6625E68E9E7E0621F
:100B500084F824006FF00200186020688368C3F3F3
:100B60004243072B05D1A84208D1096811F4702F20
:100B700004D0816841F480118160B9E7816841F453
:100B8000A001F9E7002801400424014070B50446A3
:100B900000F08EF90546601C02D004480078044439
:100BA00000F086F9401BA042FAD370BD100000206F
:100BB00030B585B000200090019002900390174856
:100BC0000168002927D1012101601548416941F4DC
:100BD000807141614069022400F48070049041F208
:100BE0000100CDE900040325694603950D4800F096
:100BF0005DF84FF68070CDE90004694603950A4818
:100C000000F054F84CF23370CDE9000469460395C6
:100C1000064800F04BF805B030BD0000040000208D
:100C20000010024000200140001801400014014063
:100C30002DE9F843154C164E182742F6E06540F2B0
:100C4000B31810281CD0082818D11920FFF79EFFD0
:100C50002088401F80B2B5FBF0F120803268491E29
:100C6000D162B5FBF0F1491EF160FFF763FDC3B23D
:100C7000009722884146912003F01CF9BDE8F883D3
:100C80001920FFF783FF2088401DE3E702000020C2
:100C9000DC060020044910B50A68024202D0086050
:100CA000FFF7C6FF10BD0000140401402DE9F84F06
:100CB000DFF8C891002409F1040A0AF1040B234665
:100CC0000F270BF1040ED1E00125A54006EA05022D
:100CD000AA4276D1DFF8A8C14E68A6EB0C0866459B
:100CE0002BD00DDC032E34D005DC36B3012E19D009
:100CF000022E2FD11BE0112E16D0122E2AD119E070
:100D0000B8F5881F19D006DCB8F5803F15D0B8F5C6
:100D1000801F1FD111E0B8F5001F0ED0B8F5041FD9
:100D200018D10AE0CB6815E0CB681B1D12E0CB6838
:100D300008330FE0CB680C330CE08B682BB1012B30
:100D40004FF0080303D0456104E0042302E005618D
:100D500000E00023FF2A01D8064601E000F1040666
:100D60004FEA840501D9A5F12005D6F8008007FADD
:100D700005FC28EA0C0803FA05F548EA0508C6F858
:100D800000804D68ED0070D53E4DAE6946F001061D
:100D9000AE61AD6924F0030605F0010500953A4DFA
:100DA00006EB050CDCF80850A607360F07FA06F824
:100DB00025EA0805DFF8D480404503D14FF000084C
:100DC00025E052E0DFF8C880404502D14FF001082D
:100DD0001DE0DFF8C080404502D14FF0020816E068
:100DE000DFF8B480404502D14FF003080FE0DFF890
:100DF000AC80404502D14FF0040808E0DFF8A08045
:100E0000404502D14FF0050801E04FF0060808FA0E
:100E100006F848EA0508CCF808804D68D9F8006063
:100E2000ED034D4601D5164300E096432E604D6814
:100E3000DAF80060AD03554601D5164300E096434D
:100E40002E604D68DBF80060ED025D4601D516436B
:100E500000E096432E604D68DEF80060AD027546F6
:100E600001D5164300E096432E60641C0A681646BE
:100E7000E2407FF429AFBDE8F88F00000004014094
:100E80000000111000100240000001400008014065
:100E9000000C014000100140001401400018014006
:100EA000001C01400AB1016170470904FBE7000022
:100EB00001488068704700001000002002488168E7
:100EC000027811448160704710000020074810B577
:100ED000016841F010010160032000F075F80F2057
:100EE00000F006F800F024F8002010BD00200240B9
:100EF00070B50D4D04464FF47A712878B1FBF0F0CF
:100F00000A490968B1FBF0F000F096FB48B9102CD3
:100F100007D200222146501E00F036F800206C60F7
:100F200070BD012070BD0000100000201C000020DA
:100F30000C4808B5816941F001018161816901F0C6
:100F400001010091C16941F08051C161C06900F0A7
:100F5000805000900448416821F0E06141F0007148
:100F6000416008BD0010024000000140002809DB7C
:100F700000F01F02012191404009800000F1E020B3
:100F8000C0F8001170470000F0B40E4B1B680C460F
:100F9000C3F30223C3F10705042D00D90425191D4D
:100FA000072901D2002300E0DB1E012606FA05F125
:100FB000491E214099409E40761E16403143F0BCA8
:100FC00003F05FBA0CED00E0064900F00702086884
:100FD0004FF6FF03184040EA0220034A104308601E
:100FE000704700000CED00E00000FA052DE9F84321
:100FF00005460078354CC00754D0E0690026C00093
:1010000008D4E06940F08050E061E069012600F01A
:10101000805000902E480168C90512D401688046AE
:1010200041F480710160FFF743FF074605E000BF10
:10103000FFF73EFFC01B642823D8D8F80000C00586
:10104000F6D5206A10F4407021D0A98801F44071CF
:1010500081421CD0206A1F49012220F440700A609E
:1010600000220A602062C00711D0FFF721FF074667
:1010700041F2883808E000BFFFF71AFFC11B414565
:1010800002D90320BDE8F883206A8007F4D5206ADE
:10109000696820F44070084320621EB1E06920F0C6
:1010A0008050E0612878800705D56068A96820F441
:1010B0004040084360602878C00605D560686969CB
:1010C00020F48000084360600020DBE7001002404D
:1010D00000700040400442422DE9F0470F460500F1
:1010E00061D0434E306800F00700B84209D2306842
:1010F00020F0070038433060306800F00700B84245
:1011000051D128683B4C810712D5400703D5606850
:1011100040F4E06060602878000703D5606840F420
:10112000605060606068A96820F0F000084360606B
:101130002878C00728D06868012810D021680228C4
:1011400010D0890700292EDA616821F003010143DC
:101150006160FFF7ADFE804641F288390DE02168FD
:101160008903EFE78901EDE7FFF7A2FEA0EB080195
:10117000494502D90320BDE8F0876068696800F03E
:101180000C00B0EB810FEFD1306800F00700B842DF
:101190000BD9306820F0070038433060306800F029
:1011A0000700B84201D00120E5E72878400705D5BF
:1011B0006068E96820F4E060084360602878000710
:1011C00006D56068296920F4605040EAC10060607B
:1011D00000F038F86168084AC1F30311515CC84057
:1011E0000649086006480068FFF782FE0020C2E753
:1011F0000020024000100240084600081C000020A9
:10120000140000200448054900684968044AC1F3F5
:101210000221515CC84070471C00002000100240B1
:10122000184600080448054900684968044AC1F3A3
:10123000C221515CC84070471C00002000100240D1
:101240001846000812A185B00FC98DE80F0014A040
:10125000144A006804905168134801F00C03042BF1
:1012600010D0082B0ED1C1F38343C9031DF803002E
:101270000AD5516804AAC1F34041515C0A4A50435F
:10128000B0FBF1F005B0704708494843FAE70000A9
:1012900002030405060708090A0B0C0D0E0F1010B7
:1012A000010200000010024000127A0000093D0017
:1012B0002DE9F84F040070D02078C04DC00749D008
:1012C0006868C0F38100012807D06868C0F3810016
:1012D000022809D16868C00306D52868800339D57B
:1012E00060680028E7D035E06068B0F5803F0BD03B
:1012F00010B1B0F5A02F11D0286820F480302860FC
:10130000286820F4802002E0286840F480302860BB
:10131000606890B1FFF7CCFD06460AE0286840F40B
:1013200080202860F0E700BFFFF7C2FD801B642823
:1013300073D828688003F7D50CE0FFF7B9FD06469F
:1013400005E000BFFFF7B4FD801B6428F0D82868D3
:101350008003F7D420789A4E80074FF001094FF0B0
:10136000000839D5686810F00C0F07D06868C0F322
:101370008100022809D16868C00306D42868800764
:1013800014D52069012808D110E02069B0B1C6F851
:101390000090FFF78DFD074605E00AE1FFF788FDA5
:1013A000C01B0228C4D828688007F7D5286861695F
:1013B00020F0F80040EAC10028600DE0C6F8008087
:1013C000FFF776FD074604E0FFF772FDC01B022819
:1013D00023D828688007F7D4207800072CD57948CF
:1013E000A169D9B1C0F80090FFF762FD074604E09B
:1013F000FFF75EFDC01B02280FD8686A8007F7D58B
:1014000071484FF4FA510068B0FBF1F0009000BF52
:101410000098411E0091FAD20EE080E0C0F80080F2
:10142000FFF746FD074604E0FFF742FDC01B022818
:1014300075D8686A8007F7D42078400760D5E869D6
:101440000027C00008D4E86940F08050E861E869EE
:10145000012700F0805000905C480168C90513D452
:101460000168834641F480710160FFF721FD8246E7
:1014700006E000BFFFF71CFDA0EB0A0064284ED871
:10148000DBF80000C005F5D5E06801280AD008B1F6
:10149000052813D0286A20F001002862286A20F06D
:1014A000040002E0286A40F001002862E06841F28E
:1014B000883B98B1FFF7FCFC82460BE0286A40F0BD
:1014C00004002862EEE700BFFFF7F2FCA0EB0A0180
:1014D00059455AD8286A8007F6D50CE0FFF7E8FC92
:1014E000824605E0FFF7E4FCA0EB0A0159454CD821
:1014F000286A8007F6D41FB1E86920F08050E861BF
:10150000E06988B36968C1F38101022944D00228E7
:10151000C6F8608004D0FFF7CBFC044638E034E026
:10152000FFF7C6FC074604E0FFF7C2FCC01B022819
:101530002BD828688001F7D4206AB0F5803F05D108
:101540006868A16820F4003008436860D4E90801A5
:101550000843696821F4741108436860C6F8609014
:10156000FFF7A6FC044606E025E000BFFFF7A0FC5D
:10157000001B022809D828688001F7D51BE000BFAE
:10158000FFF796FC001B022802D90320BDE8F88F64
:1015900028688001F4D40EE00128F7D06868226A38
:1015A00000F48031914204D1616A00F470108842E5
:1015B00001D00120EAE70020E8E700000010024027
:1015C00000004242800442421C00002000700040A3
:1015D00070B515460E46040007D0A069B0F5807FAF
:1015E00003D094F8410010B107E0012070BD002045
:1015F00084F84000204600F01DF804F1080120683E
:10160000FFF742F83146A2682068FFF771F8D4E985
:1016100001022946236BFFF719F8A168206850F8EA
:10162000212042F0010240F82120012084F84100ED
:10163000002070BDFFF7BCBA10B5401EB0F1807F2E
:1016400001D3012010BD4FF0E02460610F2160172D
:1016500002F017FF0020A06107202061002010BDCC
:101660007047704770B590F83C20012A2CD00124B7
:1016700080F83C40022280F83D2003685A689D684B
:1016800022F070060A6832435A60104B02689A4290
:101690000ED00F4B9A420BD0B2F1804F08D00D4BB9
:1016A0009A4205D00C4B9A4202D00C4B9A4204D17C
:1016B000496825F080031943916080F83D4000217E
:1016C00080F83C10084670BD022070BD002C01401F
:1016D000003401400004004000080040000C0040BD
:1016E00010B5040003D094F83D0010B107E00120CC
:1016F00010BD002084F83C00204600F01FF80220B6
:1017000084F83D00211D206802F0E2FD012084F8EC
:10171000460084F83E0084F83F0084F8400084F8D6
:10172000410084F8420084F8430084F8440084F8BF
:10173000450084F83D00002010BD000008B5114AA6
:1017400001681148914211D1C16941F00201C161A2
:10175000C069002200F00200009011461D20FFF732
:1017600013FCBDE808401D20FFF700BC074A91426A
:1017700007D1C16941F01001C161C06900F01000DA
:10178000009008BD0004004000100240001000401E
:1017900090F83D10012901D001207047022180F806
:1017A0003D1000680E4988420ED00E4988420BD089
:1017B000B0F1804F08D00C49884205D00B498842CF
:1017C00002D00B49884204D1816801F00701062943
:1017D00003D0016841F00101016000207047000062
:1017E000002C01400034014000040040000800408B
:1017F000000C004090F83D10012901D001207047F5
:10180000022180F83D100168CA6842F00102CA60F6
:1018100000680E4988420ED00D4988420BD0B0F1C5
:10182000804F08D00B49884205D00B49884202D02E
:101830000A49884204D1816801F00701062903D0D2
:10184000016841F00101016000207047002C014057
:10185000003401400004004000080040000C00403B
:1018600001680A6A41F211131A4207D10A6A9B10F1
:101870001A4203D10A6822F001020A60012180F8AD
:101880003D100020704770B5044690F83C000128D8
:1018900017D0012584F83C50022084F83D002068D0
:1018A000826822F0770222F47F4282600868502822
:1018B00030D00DDC20284DD005DC98B310283BD16A
:1018C00048E0022070BD302844D0402834D139E0AF
:1018D000602828D0702806D0B0F5805F2CD0B0F5F5
:1018E000005F29D10AE0CB68D1E90121206802F02C
:1018F00035FD2068816841F0770109E0CB68D1E9C6
:101900000121206802F02AFD2068816841F48041AD
:10191000816011E0CA684968206802F031FD5021F9
:10192000206807E016E0CA684968206802F039FDBF
:101930006021206802F01CFD84F83D50002084F8EE
:101940003C0070BDCA684968206802F019FD40215A
:101950002068EFE7226801461046EBE7704770B554
:101960000446006801694FF00005C943890715D492
:10197000C168C943890711D4E91E0161012020779C
:10198000206880698007204602D0FFF7E7FF04E067
:1019900000F098F8204600F096F825772068016955
:1019A000C943490717D4C168C943490713D46FF025
:1019B00004010161022020772068806910F4407FD3
:1019C000204602D0FFF7CAFF04E000F07BF8204673
:1019D00000F079F8257720680169C943090716D412
:1019E000C168C943090712D46FF0080101610420DE
:1019F00020772068C0698007204602D0FFF7AEFF3D
:101A000004E000F05FF8204600F05DF825772068DC
:101A10000169C943C90617D4C168C943C90613D4AB
:101A20006FF010010161082020772068C06910F470
:101A3000407F204602D0FFF791FF04E000F042F81B
:101A4000204600F040F8257720680169C943C9079E
:101A500008D1C168C943C90704D1891E0161204664
:101A600000F032F820680169C943090609D4C16849
:101A7000C943090605D46FF0800101612046FFF7D4
:101A8000EFFD20680169C943490609D4C168C9430B
:101A9000490605D46FF040010161204600F015F8B9
:101AA00020680169C94389060BD4C168C943890606
:101AB00007D46FF0200101612046BDE87040FFF7B8
:101AC000D0BD70BD704770477047704770B5040057
:101AD00004D094F83D00002510B106E0012070BD4F
:101AE00084F83C50204600F023F8242084F83D0080
:101AF0002068C16821F40051C160204602F064FCF6
:101B00002068016921F4904101612068416921F058
:101B10002A0141612068C16841F40051C160256417
:101B2000202084F83D0084F83E00002070BD0000B5
:101B300030B585B0002400940194029403940068A9
:101B40001449884224D11448816941F4804181615B
:101B5000816901F480410491816941F0040181614E
:101B600080690E4D00F0040004904FF40070009066
:101B7000022001900320039069462846FFF796F85B
:101B80002815CDE90004694628460294FFF78EF82F
:101B900005B030BD0038014000100240000801408F
:101BA000FEE7000070B509490646002408884D8804
:101BB00021464543204602F0B9F802F0E1F9044815
:101BC00001E00680641CAC42FBD370BDB00700206E
:101BD0000008006C2DE9F04F2B492C260A4688712D
:101BE00092884FF4305A4FF4285B4FF4487541F611
:101BF000631E2B274FF02A0C4FF0F00845F21059C6
:101C00004FF4A0744FF4F073B8B10C80A1F80280C7
:101C10004A4532D1A1F808A0A1F80AB0380288815B
:101C20000D804B80A2F5A640103801D10B804C806E
:101C3000BDE8F04F002001F0E7BFA1F800804C8024
:101C40004A4507D1A1F808A0A1F80AB04FF42C50DA
:101C5000888105E072450E8105D14F81A1F80CC045
:101C60000B804D8002E0A1F80AC08F81A2F5A6404A
:101C70001038DDD10C804B80DAE70E81A1F80AC064
:101C800072458F81CCD0CDE7B00700202DE9FE4F03
:101C9000161ACDE900104FF000085D1A47464FF0C4
:101CA000FF30002E02DD4FF0010102E003D14FF0C2
:101CB00000018A4602E08246C6F10006002D02DDE0
:101CC0004FF0010002E003D14FF00000834602E034
:101CD0008346C5F10005AE4201DD344600E02C46E6
:101CE000601C4FF0000902901DE0009881B201983D
:101CF00080B200F06BF8B0442F44A04506DD0C9A8A
:101D00000198A8EB04080AFB02000190A74205DD38
:101D10000C9A00983F1B0BFB020000900C9909EBFA
:101D200001001FFA80F902998945DEDDBDE8FE8FCA
:101D30002DE9FE4F161ACDE900104FF000085D1A8C
:101D400047464FF0FF30002E02DD4FF0010102E068
:101D500003D14FF000018B4602E08346C6F1000636
:101D6000002D02DD4FF0010002E003D14FF0000032
:101D7000824602E08246C5F10005AE4201DD3446EE
:101D800000E02C46601C4FF00009029018E000981B
:101D900081B2019880B200F019F8B0442F44A045F8
:101DA00004DD0198A8EB040858440190A74203DD24
:101DB00000983F1B5044009009F101001FFA80F980
:101DC00002998945E3DDBDE8FE8F000000B501F012
:101DD000ADFF02F0D5F8024802490088088000BD36
:101DE000200000200008006C2DE9F047DFF88C90FF
:101DF000234E4B46B9F804C092469C89B21C0D0A8A
:101E0000070A5B89ACF5A048B8F5A2680AD0ACF522
:101E1000C858B8F1630810D033801780C0B2108062
:101E2000348020E0338017805B1C3380C0B2108088
:101E300034801580641C348016E099F806C0BCF12B
:101E4000000F04D1B9F80070381A401E80B23380F8
:101E5000030A1380C7B217801380C0B21080348089
:101E60001580C8B210801580C8B21080B9F808007B
:101E70003080A2F800A0BDE8F0870000B007002085
:101E8000FE07006C2DE9F0438146A2EB0900401CDF
:101E90001E4685B20C46DFF83080079F0FE02146D2
:101EA000484601F043FF02F06BF80020414602E093
:101EB0000F80401C80B2A842FAD3641CA4B2B44282
:101EC000EDD9BDE8F08300000008006C2DE9F05F5B
:101ED000FE4DD3202880AC1C2088FD4E2088208811
:101EE0004FF6FF7808EA0021208849F2413B084379
:101EF000B08047F2897745F2103945F2105A5845BB
:101F000055D004202880208820882088434608EA6D
:101F1000002120880843A0F50541B08052397DD0CA
:101F2000B84244D0D4202880208820882088218866
:101F300003EA00200143B180494538D055214FF4D0
:101F4000704002F027F8AA214FF2010002F022F8B7
:101F500052214FF2020002F01DF808214FF2030057
:101F600002F018F801214FF2040002F013F84FF4C8
:101F70004540288020884CF20151984603EA002011
:101F8000298021880143B1800520FEF7FFFDB1883B
:101F900051450CD0A12028802088208808EA002103
:101FA00020880843A0F5AE41B08061397ED0B0886A
:101FB00058457CD1CF20288000202080C12020805F
:101FC00030202080ED202880642020800320208085
:101FD0001220208081202080E820288085202080F9
:101FE000102020807A202080CB202880392020805B
:101FF0002C2020800020208034202080022020807F
:10200000F720288020202080EA20288000202080BF
:102010002080C02028801B20208000E07EE0C1209E
:10202000288001202080C52028803020208020802A
:10203000C7202880B7202080362028804820208094
:102040003A20288055202080B12028800020208040
:102050001A202080B62028800A202080A2202080FC
:10206000F220288000202080262028800120208047
:10207000E02028800F2020802A2020802820208017
:10208000082020800E2020800820208054202080DE
:10209000A9202080432020800A2020800F2020803B
:1020A0000020208020802080208001E038E03CE07B
:1020B000E12028800020208015202080172020800B
:1020C0000720208011202080062020802B202080C7
:1020D000562020803C202080052020801020208059
:1020E0000F2020803F20208020800F2020802B2068
:1020F0002880002020802080012020803F20208018
:102100002A2028800020208020802080EF2020802E
:10211000112028807820FEF739FD90E0B78006E096
:1021200041F66310B08001F0C5BCB8427ED11120E9
:1021300028807820FEF72AFD362028800020208085
:102140003A20288005202080B22028800C20208082
:10215000208000202080332020802080B72028800D
:1021600035202080BB20288032202080C02028807D
:102170000C202080C220288001202080C3202880BD
:1021800010202080C420288020202080C620288085
:102190000F202080D0202880A4202080A120208013
:1021A000E0202880D0202080002020800220208075
:1021B000072020800A2020802820208032202080B4
:1021C0004420208042202080062020800E20208075
:1021D000122020801420208017202080E1202880D9
:1021E000D020208000202080022020800720208016
:1021F0000A20208028202080312020805420208028
:10220000472020800E2020801C2020801720208046
:102210001B2020801E2020802A2028800020208053
:1022200020802080EF2020802B2000E00AE0288002
:10223000002020802080012020803F202080292035
:1022400001F032BC48457DD1ED202880012020805E
:10225000FE202080EE202880DE202080212020808B
:10226000F120288001202080DF202880102020807D
:10227000C42028808F202080C62028800020208035
:10228000E220208020802080BF202880AA2020807B
:10229000B02028800D202080002020800D2020806C
:1022A0000020208011202080002020801920208004
:1022B0000020208021202080002020802D202080D0
:1022C000002020803D202080002003E0FE07006CDD
:1022D000B007002020805D202080002020805D202D
:1022E000208000202080B1202880802020800020B5
:1022F00020808B20208000202080962020800020BD
:102300002080B22028800020208020800220208091
:10231000002020800320208000202080B3202880FF
:10232000002020802080208020802080208020802D
:10233000208020802080208020802080208020809D
:10234000208000E0FEE3208020802080208020800C
:10235000208020802080B42028808B2020800020B6
:1023600020809620208000202080A1202080002036
:102370002080B5202880022020800020208003209B
:102380002080002020800420208000202080B62093
:102390002880002020802080B720288000202080F6
:1023A00020803F202080002020805E202080002090
:1023B000208064202080002020808C20208000202D
:1023C0002080AC20208000202080DC202080002085
:1023D00020807020208000202080902020800020FD
:1023E0002080EB20208000202080DC202080002026
:1023F0002080B8202880002020802080208020801D
:102400002080208020802080BA20288024202080E6
:102410000020208020802080C12028802020208053
:10242000002020805420208000202080FF20208059
:1024300000202080C22028800A20208000202080C8
:102440000420208000202080C32028803C20208081
:10245000002020803A202080002020803920208009
:102460000020208037202080002020803C202080F9
:1024700000202080362020800020208032202080F4
:10248000002020802F202080002020802C202080F1
:1024900000202080292020800020208026202080ED
:1024A00000202080242020800020208024202080E4
:1024B0000020208023202080002020803C202080BD
:1024C00000202080362020800020208032202080A4
:1024D000002020802F202080002020802C202080A1
:1024E000002020802920208000202080262020809D
:1024F0000020208024202080002020802420208094
:10250000002020802320208000202080C4202880DC
:102510006220208000202080052020800020208054
:102520008420208000202080F02020800020208037
:102530001820208000202080A420208000202080DF
:102540001820208000202080502020800020208023
:102550000C20208000202080172020800020208058
:102560009520208000202080F320208000202080E3
:10257000E620208000202080C52028803220208076
:1025800000202080442020800020208065202080A2
:10259000002020807620208000202080882020803D
:1025A00000202080C620288020202080002020803D
:1025B0001720208000202080012020800020208003
:1025C000C720288000202080208020802080C820F4
:1025D000288000202080208020802080C920288022
:1025E000002020802080208020802080208020806B
:1025F00020802080208020802080208020802080DB
:102600002080E020288016202080002020801C20B0
:102610002080002020802120208000202080362063
:102620002080002020804620208000202080522012
:1026300020800020208064202080002020807A20BC
:102640002080002020808B20208000202080992066
:10265000208000202080A820208000202080B92019
:10266000208000202080C420208000202080CA20DC
:10267000208000202080D220208000202080D920AF
:10268000208000202080E020208000202080F32077
:10269000208000202080E12028801620208000203B
:1026A00020801C20208000202080222020800020EC
:1026B000208036202080002020804520208000209F
:1026C0002080522020800020208064202080002054
:1026D00020807A202080002020808B2020800020F5
:1026E00020809920208000202080A82020800020A9
:1026F0002080B920208000202080C420208000205D
:102700002080CA20208000202080D220208000202D
:102710002080D820208000202080E0202080002001
:102720002080F320208000202080E22028800520C7
:102730002080002020800B202080002020801B2073
:102740002080002020803420208000202080442011
:102750002080002020804F202080002020806120C9
:102760002080002020807920208000202080882068
:102770002080002020809720208000202080A6201C
:10278000208000202080B720208000202080C220D0
:10279000208000202080C720208000202080D120A1
:1027A000208000202080D620208000202080DD2076
:1027B000208000202080F320208000202080E32043
:1027C000288005202080002020800A2020800020F2
:1027D00020801C20208000202080332020800020AA
:1027E0002080442020800020208050202080002055
:1027F00020806220208000202080782020800020FF
:1028000020808820208000202080972020800020A9
:102810002080A620208000202080B720208000205B
:102820002080C220208000202080C720208000201F
:102830002080D120208000202080D52020800020F2
:102840002080DD20208000202080F32020800020B8
:102850002080E4202880012020800020208001208A
:1028600020800020208002202080002020802A203C
:102870002080002020803C202080002020804B20D1
:102880002080002020805D20208000202080742077
:102890002080002020808420208000202080932021
:1028A000208000202080A220208000202080B320D3
:1028B000208000202080BE20208000202080C42096
:1028C000208000202080CD20208000202080D32068
:1028D000208000202080DD20208000202080F32028
:1028E000208000202080E52028800020208020807B
:1028F000208020800220208000202080292020802D
:10290000002020803C202080002020804B20208040
:10291000002020805D2020800020208074202080E6
:102920000020208084202080002020809320208090
:1029300000202080A220208000202080B320208042
:1029400000202080BE20208000202080C420208005
:1029500000202080CD20208000202080D3202080D7
:1029600000202080DC20208000202080F320208098
:1029700000202080E6202880112020800020208058
:1029800034202080002020805620208000202080BD
:10299000762020800020208077202080002020804A
:1029A0006620208000202080882020800020208039
:1029B0009920208000202080BB20208000202080C3
:1029C0009920208000202080662020800020208008
:1029D000552020800020208055202080002020804D
:1029E000452020800020208043202080002020805F
:1029F0004420208000202080E72028803220208072
:102A000000202080552020800020208076202080FB
:102A100000202080662020800020208067202080E9
:102A200000202080672020800020208087202080B8
:102A3000002020809920208000202080BB20208042
:102A40000020208099202080002020807720208076
:102A500000202080442020800020208056202080DC
:102A60000020208023202080002020803320208010
:102A7000002020804520208000202080E820288021
:102A80000020208020809920208000202080872026
:102A90002080002020808820208000202080772037
:102AA0002080002020806620208000202080882038
:102AB000208000202080AA20208000202080BB20B1
:102AC0002080002020809920208000202080662007
:102AD000208000202080552020800020208055204C
:102AE000208000202080442020800020208044205E
:102AF0002080002020805520208000202080E92098
:102B00002880AA202080002020802080208028800B
:102B1000AA202080CF2028800020208020802080B4
:102B200020802080208020802080208020802080A5
:102B3000208020802080208020802080F02028801D
:102B4000002000E031E02080502020800020208004
:102B500020802080F320288000202080F9202880F9
:102B60000620208010202080292020800020208026
:102B70003A20288055202080112028806420FEF7EC
:102B800005F8292028803520288000202080512029
:102B90002880FF202080532028802C202080552052
:102BA0002880822020802C20FEE350457ED14FF4E7
:102BB00070495521484601F0EDF94FF20103AA2171
:102BC000184601F0E7F94FF202045221204601F0C5
:102BD000E1F9661C0821304601F0DCF9A71C01214F
:102BE000384601F0D7F90D214FF4304001F0D2F909
:102BF0000D214BF2010001F0CDF90D214BF2020045
:102C000001F0C8F94FF4364A3421504601F0C2F9B8
:102C100034214BF2016001F0BDF934214BF2026026
:102C200001F0B8F94FF4314B0D21584601F0B2F9DB
:102C30000D214BF2011001F0ADF90D214BF2021004
:102C400001F0A8F934214FF4374001F0A3F9342101
:102C50004BF2017001F09EF934214BF2027001F049
:102C600099F900214FF4324001F094F900214BF220
:102C7000012001F08FF900214BF2022001F08AF9C6
:102C800024214FF4384001F085F924214BF601004E
:102C900001F080F924214BF6020001F07BF90121BB
:102CA0004FF43F4001F076F90F2100E0FEE34FF4CE
:102CB000334001F06FF90F214BF2013001F06AF956
:102CC0000F214BF2023001F065F934214FF4394005
:102CD00001F060F934214BF6011001F05BF9342169
:102CE0004BF6021001F056F908214FF4354001F07F
:102CF00051F908214BF2015001F04CF908214BF237
:102D0000025001F047F903214FF4424001F042F92B
:102D100024214FF43A4001F03DF924214BF60120E3
:102D200001F038F924214BF6022001F033F900219B
:102D30004FF43C4001F02EF978214BF6014001F0B0
:102D400029F900214BF6024001F024F900214FF44B
:102D50003D4001F01FF978214BF6015001F01AF9BE
:102D600000214BF6025001F015F900214FF43E40CE
:102D700001F010F964214BF6016001F00BF900211C
:102D80004FF4514001F006F933214DF2011001F0EA
:102D900001F900214DF2021001F0FCF834214DF24E
:102DA000031001F0F7F800214DF2041001F0F2F8E1
:102DB0003A214DF2051001F0EDF800214DF2061018
:102DC00001F0E8F84A214DF2071001F0E3F8002184
:102DD0004DF2081001F0DEF85C214DF2091001F00F
:102DE000D9F800214DF20A1001F0D4F881214DF2FA
:102DF0000B1001F0CFF800214DF20C1001F0CAF8D1
:102E0000A6214DF20D1001F0C5F800214DF20E1073
:102E100001F0C0F8E5214DF20F1001F0BBF80121DF
:102E20004DF2101001F0B6F813214DF2111001F01F
:102E3000B1F801214DF2121001F0ACF854214DF21D
:102E4000131001F0A7F801214DF2141001F0A2F8BF
:102E500082214DF2151001F09DF801214DF216105E
:102E600001F098F8CA214DF2171001F093F80221F1
:102E70004DF2181001F08EF800214DF2191001F0FA
:102E800089F802214DF21A1001F084F801214DF267
:102E90001B1001F07FF802214DF21C1001F07AF8AE
:102EA00034214DF21D1001F075F802214DF21E1073
:102EB00001F070F867214DF21F1001F06BF802214C
:102EC0004DF2201001F066F884214DF2211001F03E
:102ED00061F802214DF2221001F05CF8A4214DF2BC
:102EE000231001F057F802214DF2241001F052F89E
:102EF000B7214DF2251001F04DF802214DF22610B8
:102F000001F048F8CF214DF2271001F043F80221DB
:102F10004DF2281001F03EF8DE214DF2291001F0AB
:102F200039F802214DF22A1001F034F8F2214DF265
:102F30002B1001F02FF802214DF22C1001F02AF88D
:102F4000FE214DF22D1001F025F803214DF22E1037
:102F500001F020F810214DF22F1001F01BF8032191
:102F60004DF2301001F016F833214DF2311001F01E
:102F700011F803214DF2321001F00CF86D214DF2E1
:102F8000331001F007F800214FF4524001F002F82D
:102F900033214DF2012000F0FDFF00214DF202200F
:102FA00000F0F8FF34214DF2032000F0F3FF002180
:102FB0004DF2042000F0EEFF3A214DF2052000F022
:102FC000E9FF00214DF2062000F0E4FF4A214DF216
:102FD000072000F0DFFF00214DF2082000F0DAFFAB
:102FE0005C214DF2092000F0D5FF00214DF20A20AE
:102FF00000F0D0FF81214DF20B2000F0CBFF00212B
:103000004DF20C2000F0C6FFA6214DF20D2000F07D
:10301000C1FF00214DF20E2000F0BCFFE5214DF272
:103020000F2000F0B7FF01214DF2102000F0B2FF99
:1030300013214DF2112000F0ADFF01214DF21220BD
:1030400000F0A8FF54214DF2132000F0A3FF01214E
:103050004DF2142000F09EFF82214DF2152000F069
:1030600099FF01214DF2162000F094FFCA214DF284
:10307000172000F08FFF02214DF2182000F08AFF88
:1030800000214DF2192000F085FF02214DF21A2097
:1030900000F080FF01214DF21B2000F07BFF022198
:1030A0004DF21C2000F076FF34214DF21D2000F07F
:1030B00071FF02214DF21E2000F06CFF67214DF2DE
:1030C0001F2000F067FF02214DF2202000F062FF78
:1030D00084214DF2212000F05DFF02214DF22220DB
:1030E00000F058FFA4214DF2232000F053FF0221ED
:1030F0004DF2242000F04EFFB7214DF2252000F0C4
:1031000049FF02214DF2262000F044FFCF214DF26D
:10311000272000F03FFF02214DF2282000F03AFF67
:10312000DE214DF2292000F035FF02214DF22A2048
:1031300000F030FFF2214DF22B2000F02BFF022196
:103140004DF22C2000F026FFFE214DF22D2000F044
:1031500021FF03214DF22E2000F01CFF10214DF223
:103160002F2000F017FF03214DF2302000F012FF56
:1031700033214DF2312000F00DFF03214DF23220BA
:1031800000F008FF6D214DF2332000F003FF002115
:103190004FF4534000F0FEFE33214DF2013000F0B9
:1031A000F9FE00214DF2023000F0F4FE34214DF220
:1031B000033000F0EFFE00214DF2043000F0EAFE93
:1031C0003A214DF2053000F0E5FE00214DF20630C7
:1031D00000F0E0FE4A214DF2073000F0DBFE002156
:1031E0004DF2083000F0D6FE5C214DF2093000F0BF
:1031F000D1FE00214DF20A3000F0CCFE81214DF2CB
:103200000B3000F0C7FE00214DF20C3000F0C2FE82
:10321000A6214DF20D3000F0BDFE00214DF20E3022
:1032200000F0B8FEE5214DF20F3000F0B3FE0121B1
:103230004DF2103000F0AEFE13214DF2113000F0CF
:10324000A9FE01214DF2123000F0A4FE54214DF2EE
:10325000133000F09FFE01214DF2143000F09AFE71
:1032600082214DF2153000F095FE01214DF216300D
:1032700000F090FECA214DF2173000F08BFE0221C3
:103280004DF2183000F086FE00214DF2193000F0AA
:1032900081FE02214DF21A3000F07CFE01214DF238
:1032A0001B3000F077FE02214DF21C3000F072FE60
:1032B00034214DF21D3000F06DFE02214DF21E3022
:1032C00000F068FE67214DF21F3000F063FE02211E
:1032D0004DF2203000F05EFE84214DF2213000F0EE
:1032E00059FE02214DF2223000F054FEA4214DF28D
:1032F000233000F04FFE02214DF2243000F04AFE50
:10330000B7214DF2253000F045FE02214DF2263066
:1033100000F040FECF214DF2273000F03BFE0221AD
:103320004DF2283000F036FEDE214DF2293000F05B
:1033300031FE02214DF22A3000F02CFEF2214DF236
:103340002B3000F027FE02214DF22C3000F022FE3F
:10335000FE214DF22D3000F01DFE03214DF22E30E6
:1033600000F018FE10214DF22F3000F013FE032163
:103370004DF2303000F00EFE33214DF2313000F0CE
:1033800009FE03214DF2323000F004FE6D214DF2B2
:10339000333000F0FFFD00214FF4544000F0FAFDFF
:1033A00033214DF2014000E07EE300F0F3FD002107
:1033B0004DF2024000F0EEFD34214DF2034000F0EA
:1033C000E9FD00214DF2044000F0E4FD3A214DF208
:1033D000054000F0DFFD00214DF2064000F0DAFD6F
:1033E0004A214DF2074000F0D5FD00214DF2084082
:1033F00000F0D0FD5C214DF2094000F0CBFD002132
:103400004DF20A4000F0C6FD81214DF20B4000F064
:10341000C1FD00214DF20C4000F0BCFDA6214DF293
:103420000D4000F0B7FD00214DF20E4000F0B2FD5E
:10343000E5214DF20F4000F0ADFD01214DF21040AD
:1034400000F0A8FD13214DF2114000F0A3FD012171
:103450004DF2124000F09EFD54214DF2134000F059
:1034600099FD01214DF2144000F094FD82214DF2AE
:10347000154000F08FFD01214DF2164000F08AFD4D
:10348000CA214DF2174000F085FD02214DF218408F
:1034900000F080FD00214DF2194000F07BFD02217B
:1034A0004DF21A4000F076FD012100E0FEE24DF2FF
:1034B0001B4000F06FFD02214DF21C4000F06AFD40
:1034C00034214DF21D4000F065FD02214DF21E40F9
:1034D00000F060FD67214DF21F4000F05BFD02210E
:1034E0004DF2204000F056FD84214DF2214000F0C5
:1034F00051FD02214DF2224000F04CFDA4214DF27D
:10350000234000F047FD02214DF2244000F042FD2F
:10351000B7214DF2254000F03DFD02214DF226403D
:1035200000F038FDCF214DF2274000F033FD02219D
:103530004DF2284000F02EFDDE214DF2294000F032
:1035400029FD02214DF22A4000F024FDF2214DF226
:103550002B4000F01FFD02214DF22C4000F01AFD1F
:10356000FE214DF22D4000F015FD03214DF22E40BD
:1035700000F010FD10214DF22F4000F00BFD032153
:103580004DF2304000F006FD33214DF2314000F0A5
:1035900001FD03214DF2324000F0FCFC6D214DF2A3
:1035A000334000F0F7FC00214FF4554000F0F2FCEE
:1035B00033214DF2015000F0EDFC00214DF202509C
:1035C00000F0E8FC34214DF2035000F0E3FC002150
:1035D0004DF2045000F0DEFC3A214DF2055000F0AF
:1035E000D9FC00214DF2065000F0D4FC4A214DF2E6
:1035F000075000F0CFFC00214DF2085000F0CAFC4B
:103600005C214DF2095000F0C5FC00214DF20A503A
:1036100000F0C0FC81214DF20B5000F0BBFC0021FA
:103620004DF20C5000F0B6FCA6214DF20D5000F00A
:10363000B1FC00214DF20E5000F0ACFCE5214DF242
:103640000F5000F0A7FC01214DF2105000F0A2FC39
:1036500013214DF2115000F09DFC01214DF212504A
:1036600000F098FC54214DF2135000F093FC01211E
:103670004DF2145000F08EFC82214DF2155000F0F6
:1036800089FC01214DF2165000F084FCCA214DF254
:10369000175000F07FFC02214DF2185000F07AFC28
:1036A00000214DF2195000F075FC02214DF21A5024
:1036B00000F070FC01214DF21B5000F06BFC022168
:1036C0004DF21C5000F066FC34214DF21D5000F00C
:1036D00061FC02214DF21E5000F05CFC67214DF2AE
:1036E0001F5000F057FC02214DF2205000F052FC18
:1036F00084214DF2215000F04DFC02214DF2225068
:1037000000F048FCA4214DF2235000F043FC0221BC
:103710004DF2245000F03EFCB7214DF2255000F050
:1037200039FC02214DF2265000F034FCCF214DF23D
:10373000275000F02FFC02214DF2285000F02AFC07
:10374000DE214DF2295000F025FC02214DF22A50D5
:1037500000F020FCF2214DF22B5000F01BFC022166
:103760004DF22C5000F016FCFE214DF22D5000F0D1
:1037700011FC03214DF22E5000F00CFC10214DF2F3
:103780002F5000F007FC03214DF2305000F002FCF6
:1037900033214DF2315000F0FDFB03214DF2325048
:1037A00000F0F8FB6D214DF2335000F0F3FB0021E7
:1037B0004FF4564000F0EEFB33214DF2016000F073
:1037C000E9FB00214DF2026000F0E4FB34214DF2F0
:1037D000036000F0DFFB00214DF2046000F0DAFB33
:1037E0003A214DF2056000F0D5FB00214DF2066054
:1037F00000F0D0FB4A214DF2076000F0CBFB002126
:103800004DF2086000F0C6FB5C214DF2096000F04B
:10381000C1FB00214DF20A6000F0BCFB81214DF29A
:103820000B6000F0B7FB00214DF20C6000F0B2FB22
:10383000A6214DF20D6000F0ADFB00214DF20E60AF
:1038400000F0A8FBE5214DF20F6000F0A3FB012181
:103850004DF2106000F09EFB13214DF2116000F05C
:1038600099FB01214DF2126000F094FB54214DF2BE
:10387000136000F08FFB01214DF2146000F08AFB11
:1038800082214DF2156000F085FB01214DF216609A
:1038900000F080FBCA214DF2176000F07BFB022193
:1038A0004DF2186000F076FB00214DF2196000F037
:1038B00071FB02214DF21A6000F06CFB01214DF208
:1038C0001B6000F067FB02214DF21C6000F062FB00
:1038D00034214DF21D6000F05DFB02214DF21E60AF
:1038E00000F058FB67214DF21F6000F053FB0221EE
:1038F0004DF2206000F04EFB84214DF2216000F07B
:1039000049FB02214DF2226000F044FBA4214DF25C
:10391000236000F03FFB02214DF2246000F03AFBEF
:10392000B7214DF2256000F035FB02214DF22660F3
:1039300000F030FBCF214DF2276000F02BFB02217D
:103940004DF2286000F026FBDE214DF2296000F0E8
:1039500021FB02214DF22A6000F01CFBF2214DF206
:103960002B6000F017FB02214DF22C6000F012FBDF
:10397000FE214DF22D6000F00DFB03214DF22E6073
:1039800000F008FB10214DF22F6000F003FB032133
:103990004DF2306000F0FEFA33214DF2316000F05C
:1039A000F9FA03214DF2326000F0F4FA6D214DF284
:1039B000336000F0EFFA5521484600F0EBFAAA21F7
:1039C000184600F0E7FA5221204600F0E3FA0821F9
:1039D000304600F0DFFA0021384600F0DBFACC2157
:1039E000584600F0D7FA00214BF2011000F0D2FA4D
:1039F0000521504600F0CEFA70214FF4374000F018
:103A0000C9FA70214BF2017000F0C4FA01214FF4A1
:103A1000384000F0BFFA03214BF6010000F0BAFA7B
:103A200003214BF6020000F0B5FA03214BF6030028
:103A300000F0B0FA02214FF43C4000F0ABFA002154
:103A40004BF6014000F0A6FA00214BF6024000F0D0
:103A5000A1FAD0214FF4494000F09CFA02214CF623
:103A6000011000F097FA50214CF6021000F092FA83
:103A700050214CF6031000F08DFA50214CF6041042
:103A800000F088FA00214FF4545000F083FA5521D9
:103A90004FF4685000F07EFA4FF488502880782068
:103AA000FCF70CFD4FF4245028807DE0A0F5C851B0
:103AB000633979D1E22028801D20208002202080D7
:103AC000042020806420FCF7F9FCE02028800120FD
:103AD00020800A20FDF75AF8E0202880032020806B
:103AE0000C20FDF753F8012028800A20FDF74EF83E
:103AF000E62028802F202080FF2020802080B020FA
:103B0000288020202080002020800320208040F278
:103B10001F3020800120208040F2DF102080002014
:103B20002080B42028800420208040F21F40208084
:103B3000002020802E2020800020208020802080D7
:103B40002080B6202880022020804FF4037020803F
:103B50000020208017202080152020800020208039
:103B60002080F02028800320208029202880D02059
:103B7000288000202080BE20288005202080FE2074
:103B80002080012020800020208020802080B820FC
:103B900028800320208001202080BA202880012056
:103BA0002080642000F012F80120FEF713F8FCF7E3
:103BB00043FD4046BDE8F05FFDF7F4BF024601203B
:103BC00000E05043491EC9B2FBD270470C4A10B501
:103BD000BE211180941C05212180FCF759FB4FF078
:103BE0006632084BFCF7E2FAFCF75FFB208001200D
:103BF0002080FF20208000202080208010BD000039
:103C0000FE07006C6666044070B5464B00241946FA
:103C10009A79898841F66316012A01D01AB10CE01D
:103C2000B14202D109E0B14207D1082805D2DFE84C
:103C300000F0161812140C19100E082812D2DFE822
:103C400000F0110406080A0C0E1080240AE040243B
:103C500008E0C02406E0202404E0602402E0A02460
:103C600000E0E02445F21055A94202D14FF458502B
:103C700000E03620A1F51342413A03D0A1F5EE420F
:103C8000893A01D144F00804214600F083F99A886A
:103C9000B2420AD0A0061888598802D5884202D3B9
:103CA00003E0884201D9198058801F49881CAA4224
:103CB0005A890A8021D100240480541C0C800024DD
:103CC0000480941C0C801C88641E250A0580D21C6C
:103CD0000A80E2B202809A890A8000240480541C7F
:103CE0000C8000240480941C0C805B885B1E1C0AE2
:103CF0000480D21C0A80D9B212E000220280028025
:103D00001A88521E140A0480D2B202809A890A804C
:103D10000021018001805988491E0A0A0280C9B227
:103D2000018070BDB0070020FE07006C2DE9F04354
:103D3000DFF8A490294D4B46B9F804C09C89070AC6
:103D40000E0AAA1C5B89ACF5C858B8F163080ED0FE
:103D5000ACF5A048B8F5A2682B80178033D0C0B26C
:103D600010802C801680C8B21080BDE8F083DFF888
:103D700068C099F80680BCF800C0B8F1000F16D0F2
:103D80002B801780C0B21080ACF1010C4FEA1C20D0
:103D900010800CF0FF0010802C801680C9B21180BA
:103DA000B9F80200401E010A1180C0B2DCE7ACEB9A
:103DB0000000401E80B22B80002313801380030A72
:103DC0001380C0B2E7E75B1C2B80C0B210802C8050
:103DD0001680641C2C80C6E7B0070020FE07006C2C
:103DE0002DE9FF4F1D460C468A46580700D001209A
:103DF00000EBD50069084843203A00F0FF09D0B233
:103E00000026DFF89CB0029045E00C2D12D0102D5A
:103E100015D0182D41D10298224900EBC00000BFF7
:103E200001EB80004FF00008875D38060CD51E4876
:103E300002880DE002981D4900EB4000F0E71C49A4
:103E4000029801EB0010EDE70D9828B9164842885A
:103E500021460098FDF7C8FF7806070E641CBBF8E2
:103E60000200A4B2A04218D9A4EB0A00A84209D1CA
:103E700000985446401C80B20090BBF8001081426C
:103E80000BD906E008F1010000F0FF08B8F1080FB7
:103E9000CBD3761CF6B24E45B7D3BDE8FF8F0000FA
:103EA000B0070020845000082000002020460008B1
:103EB000944A00082DE9FF4F81B00026DDF838A0B4
:103EC0001D46934681463446B0464FEA5A0727E0DE
:103ED000281B401EC1B20A20FFF770FEBBFBF0F0AA
:103EE0000A21B0FBF1F201FB120026B9691E8C42D7
:103EF00001DA48B101263030C2B207FB049080B22B
:103F00005346CDF8008006E007FB049080B253468C
:103F10002022CDF800800299FFF762FF641CE4B212
:103F2000AC42D5D305B0BDE8F08F2DE9F84F04467B
:103F300000F0FF0910190D46DDE90AB61FFA80F8F6
:103F4000581987B24FF0000A12E0444503D305EB3D
:103F50000B004C4685B2BD420FD25B462946204637
:103F6000CDF800A0FFF73CFF04EB5B0084B2761CA9
:103F70003278A2F120005E28E7D9BDE8F88F000072
:103F8000024803490089088070470000B0070020FC
:103F9000FE07006C024A1080901C018070470000F0
:103FA000FE07006C3EB50024104800940194029472
:103FB0000D498460016004730475012505614FF4A7
:103FC00000214460C161FCF7B9FC08B1FCF73CFB7F
:103FD000CDE90045694605480294FCF7B9FB002885
:103FE00001D0FCF731FB3EBD0024014064060020F7
:103FF00030B58FB01C216846FCF7CDF81C2107A80E
:10400000FCF7C9F81B484FF02041102201601A4903
:104010004160062181600021C160C0E90412816114
:10402000C16113020162C0E909139302C0E90B13D5
:104030004163816301230F20CDE9003002AD1124DB
:1040400085E817000325CDE906150AAD85E81600B9
:104050000D91CDE9080307AA69460648FDF7B8FAAD
:1040600008B1FCF7F1FA0548C16941F48061C1610A
:104070000FB030BD94060020040100A000000140F4
:1040800070B586B0002528480095019502950395E6
:10409000816941F040018161816901F04001049131
:1040A000816941F004018161816901F00401049199
:1040B000816941F008018161816901F00801049181
:1040C000816941F480718161816901F48071049199
:1040D000816941F0200181618069144E00F0200067
:1040E0000490002201213046FCF7DCFE18200090ED
:1040F0000F480124CDE9010469460E48FCF7D6FDBE
:104100000220CDE902500094694601943046FCF744
:10411000CDFD002211460920FCF736FF0920FCF7EF
:1041200025FF06B070BD000000100240000C0140E9
:10413000000021100018014010B586B00024174877
:10414000009401940294039404941349059401602B
:104150000521C0E901146321C0E903148461FDF75E
:10416000BFFA08B1FCF770FA4FF48050009069462E
:104170000A48FDF788FB08B1FCF766FA2020CDE974
:10418000040404A90548FDF76DFA002801D0FCF7E6
:104190005BFA06B010BD000000040040DC06002001
:1041A0001CB500240E4800940C490194016047217D
:1041B000C0E901144FF6FF718461C160FDF790FA08
:1041C00008B1FCF741FA0094694605480194FDF7EF
:1041D00049FA002801D0FCF737FA1CBD0010004056
:1041E000240700200C4810B50A4901604FF4E13162
:1041F0004160002181600C22C160C0E9041281612C
:10420000C161FDF763FC002803D0BDE81040FCF756
:104210001BBA10BD003801406C070020FEE7FEE726
:104220007047704730B5002213464FF4487500BF01
:1042300030F81340944200DD22460B44AB42F7DBDA
:1042400090B230BDFCF73ABE30B595B02821684633
:10425000FBF7A1FF14210AA8FBF79DFF18210FA867
:10426000FBF799FF01210804CDE900100025029514
:1042700002240491CDE907404FF4E010099068460C
:10428000FDF716F808B172B6FEE70AA90F2081E81B
:1042900031004FF48060CDE90D0502210AA8FCF73A
:1042A0001BFF08B172B6FEE74FF4004011900F9467
:1042B0000FA8FCF79BFE002801D072B6FEE715B0F0
:1042C00030BD70470148FDF74ABB0000DC06002006
:1042D000F0B502681C4B1D4D1D4E1E4F1E4C4FF07D
:1042E000804C984209D0A04207D0604505D0A84232
:1042F00003D0B04201D0B84204D122F0700E4A6817
:1043000042EA0E02984209D0A04207D0604505D08B
:10431000A84203D0B04201D0B84203D122F4407584
:10432000CA682A434D6922F080022A4302608A68E3
:10433000C2620A688262984201D0A04201D1096932
:10434000016301214161F0BD002C014000040040E7
:1043500000080040000C00400034014010B58468A3
:1043600042EA032224F47F440A432243826010BDC0
:10437000826822F070020A4342F0070181607047B0
:1043800010B5036A046A24F001040462846924F00D
:10439000F00444EA021423F00A020A438461026230
:1043A00010BD10B5036A23F0100303628369046A29
:1043B00023F4704343EA023224F0A00343EA0111DC
:1043C0008261016210BD000070B504460068016999
:1043D000E26821F44051114301612169A06808435A
:1043E000616908432168CA6841F20C639A43024339
:1043F000CA6020684169A26921F44071114341619A
:104400001E492068884202D1FCF70CFF01E0FCF74E
:10441000F9FE00EBC00101EB00126068642180002E
:10442000B2FBF0F3B3FBF1F36FF018067343B2FB8A
:10443000F0F5B2FBF0F605EB8305322303EB05152F
:10444000B5FBF1F5B6FBF1F605F0F00505EB061549
:10445000B2FBF0F6B2FBF0F0B0FBF1F06FF0180237
:10446000504306EB800003EB0010B0FBF1F0216835
:1044700000F00F002844886070BD00000038014043
:10448000FEE70907090E002804DB00F1E02080F8B0
:104490000014704700F00F0000F1E02080F8141DB8
:1044A000704702E008C8121F08C1002AFAD17047FD
:1044B0007047002001E001C1121F002AFBD17047A4
:1044C00008B5FCF703FDFFF7BFFEFFF7D9FDFFF7C7
:1044D0008FFDFFF765FEFFF765FDFFF783FEFFF732
:1044E0002BFEFDF7F3FC48F23040FDF75BFB4FF489
:1044F000AF7B5846FBF7FCFFFCF72AF83948FDF77D
:1045000079F93948FCF7E2FA384E394DDFF8E4A082
:104510004FF448784FF0000928884246904215D061
:104520003148FCF794F980B2FBF7B2FE324A334BC4
:10453000FBF73CFE0022324BFBF738FEFBF7B5FEE3
:10454000298826F81100491C2980E5E700215C46EE
:104550005B460846CDF80090FDF794FC2046FBF73B
:10456000C7FF4FF6E071AAF80010002440F21F3791
:1045700006EB44004088C0F5AF7083B2601C82B285
:1045800036F81400C0F5AF7081B2A0B2FDF7D0FBD1
:10459000641CBC42ECDB4FF6FF74AAF8004048F202
:1045A00030404FF4CD7700904FF4D97362223946F2
:1045B0003120FDF767FC02210C48FFF733FE00EBCA
:1045C000800004EA40000F4C2080FCF7B3F8C3B22F
:1045D00018200090228839463120FFF76BFCA5F89F
:1045E000009099E7DC0600206406002024000020EB
:1045F0000C00002020000020B4D934E70C684A3FAA
:1046000000005940000000200000000000000000F1
:104610000102030406070809000000000102030468
:10462000000000000000000000000000000000008A
:104630003F4000000000000000003000400030005B
:104640004000000009000BC03D000BC03D00090008
:1046500018C024407FE0224031800000180024C0B0
:104660001B000D803240018003801C4027401C80CD
:104670000740004010006000000000000000000043
:104680000000000000001F8020404020000040206B
:1046900020401F8000000000090006001F80060067
:1046A00009000000040004003F8004000400000032
:1046B0000010006000000000000000000400040082
:1046C000040004000400000000000040000000009E
:1046D00000000000002001C006003800400000007B
:1046E0001F802040204020401F800000000010401C
:1046F0003FC000400000000018C02140224024407C
:104700001840000010802040244024401B800000FE
:1047100002000D0011003FC0014000003C80244019
:1047200024402440238000001F8024402440344043
:10473000038000003000200027C038002000000067
:104740001B802440244024401B8000001C0022C009
:10475000224022401F8000000000000008400000AE
:1047600000000000000000000460000000000000E5
:10477000000004000A0011002080404009000900E8
:1047800009000900090000000000404020801100DD
:104790000A00040018002000234024001800000034
:1047A0001F802040274029401F400000004007C0D4
:1047B00039000F0001C0004020403FC02440244089
:1047C0001B8000001F8020402040204030800000DF
:1047D00020403FC0204020401F80000020403FC0BC
:1047E00024402E4030C0000020403FC024402E0016
:1047F000300000000F001080204022403380020073
:1048000020403FC0040004003FC020402040204022
:104810003FC02040204000000060202020203FC0FA
:104820002000200020403FC024400B0030C020402A
:1048300020403FC020400040004000C03FC03C003E
:1048400003C03C003FC0000020403FC00C4023009C
:104850003FC020001F802040204020401F800000DB
:1048600020403FC024402400180000001F80214049
:10487000214020E01FA0000020403FC0244026002F
:1048800019C0004018C0244024402240318000005C
:10489000300020403FC020403000000020003F801A
:1048A000004000403F80200020003E0001C0070083
:1048B00038002000380007C03C0007C03800000066
:1048C000204039C0060039C0204000002000384098
:1048D00007C0384020000000304021C0264038404A
:1048E00020C00000000000007FE0402040200000C9
:1048F000000070000C000380004000000000402019
:1049000040207FE000000000000020004000200068
:104910000000000000100010001000100010001037
:1049200000000000400000000000000000000280C5
:104930000540054003C0004020003FC00440044043
:104940000380000000000380044004400640000093
:1049500000000380044024403FC00040000003806A
:104960000540054003400000000004401FC02440F3
:1049700024402000000002E00550055006500420AD
:1049800020403FC00440040003C000400000044039
:1049900027C000400000000000100010041027E0B5
:1049A0000000000020403FC00140070004C0044058
:1049B000204020403FC000400040000007C00400ED
:1049C00007C0040003C00000044007C00440040006
:1049D00003C0004000000380044004400380000046
:1049E000041007F00450044003800000000003801E
:1049F0000440045007F00010044007C002400400C7
:104A000004000000000006400540054004C000000E
:104A1000000004001F8004400040000004000780E4
:104A20000040044007C000400400070004C00180AB
:104A300006000400060001C0070001C006000000D7
:104A4000044006C0010006C0044000000410071026
:104A500004E00180060004000000044005C0064098
:104A6000044000000000000004007BE04020000043
:104A7000000000000000FFF00000000000004020E7
:104A80007BE00400000000004000800040002000A7
:104A900020004000000000000000000000000000B6
:104AA000000000000000000000001FCC000C00000F
:104AB0000000000000000800300060000800300026
:104AC00060000000022003FC1E20022003FC1E20C8
:104AD0000220000000000E1811043FFF10840C7823
:104AE000000000000F0010840F3800C00778188401
:104AF0000078000000780F8410C411240E9800E4A0
:104B00000084000808006800700000000000000039
:104B10000000000000000000000007E0181820045A
:104B200040020000000040022004181807E00000C6
:104B3000000000000240024001800FF001800240AE
:104B4000024000000080008000800FF8008000809C
:104B5000008000000001000D000E000000000000B9
:104B600000000000000000800080008000800080C5
:104B7000008000800000000C000C0000000000001D
:104B80000000000000000006001800600180060020
:104B900018002000000007F008081004100408089E
:104BA00007F000000000080408041FFC00040004D3
:104BB0000000000000000E0C10141024104411849A
:104BC0000E0C000000000C181004110411041288CF
:104BD0000C700000000000E00320042408241FFCE7
:104BE0000024000000001F98108411041104108894
:104BF00010700000000007F00888110411041888E4
:104C00000070000000001C00100010FC13001C00CD
:104C10001000000000000E3811441084108411446C
:104C20000E38000000000700088C1044104408886B
:104C300007F00000000000000000030C030C00005F
:104C4000000000000000000000010106000000005C
:104C5000000000000000008001400220041008084D
:104C60001004000002200220022002200220022064
:104C70000220000000001004080804100220014077
:104C80000080000000000E001200100C106C10805C
:104C90000F00000003E00C1813E4142417C40828C4
:104CA00007D000000004003C03C41C40074000E49F
:104CB000001C000410041FFC1104110411040E88D0
:104CC0000070000003E00C18100410041004100819
:104CD0001C10000010041FFC10041004100408082D
:104CE00007F0000010041FFC1104110417C4100485
:104CF0000818000010041FFC1104110017C0100058
:104D00000800000003E00C181004100410441C7884
:104D10000040000010041FFC1084008000801084FC
:104D20001FFC10040000100410041FFC10041004E9
:104D30000000000000030001100110011FFE100020
:104D40001000000010041FFC110403801464181CE0
:104D50001004000010041FFC1004000400040004F0
:104D6000000C000010041FFC1F0000FC1F001FFCB3
:104D70001004000010041FFC0C04030000E01018D5
:104D80001FFC100007F008081004100410040808A5
:104D900007F0000010041FFC1084108010801080A9
:104DA0000F00000007F0081810241024101C080A37
:104DB00007F2000010041FFC1104110011C0113093
:104DC0000E0C000400000E1C11041084108410440A
:104DD0001C3800001800100010041FFC1004100004
:104DE0001800000010001FF8100400040004100454
:104DF0001FF8100010001E0011E0001C007013804E
:104E00001C0010001FC0103C00E01F0000E0103C20
:104E10001FC000001004180C163401C001C0163465
:104E2000180C100410001C00130400FC13041C00D8
:104E3000100000000804101C1064108413041C04EB
:104E4000101800000000000000007FFE4002400239
:104E500040020000000030000C0003800060001CD5
:104E60000003000000004002400240027FFE0000FC
:104E70000000000000000000200040004000400052
:104E800020000000000100010001000100010001FC
:104E90000001000100004000400020000000000070
:104EA0000000000000000098012401440144014476
:104EB00000FC000410001FFC0088010401040088AD
:104EC000007000000000007000880104010401046B
:104ED000008800000000007000880104010411082F
:104EE0001FFC0004000000F8014401440144014497
:104EF00000C800000000010401040FFC11041104AB
:104F000011001800000000D601290129012901C95A
:104F10000106000010041FFC0084010001000104D0
:104F200000FC000400000104190419FC0004000442
:104F3000000000000000000300010101190119FE3A
:104F40000000000010041FFC0024004001B4010C0C
:104F5000010400000000100410041FFC0004000401
:104F600000000000010401FC0104010001FC010437
:104F7000010000FC010401FC0084010001000104A7
:104F800000FC0004000000F8010401040104010415
:104F900000F80000010101FF008501040104008800
:104FA0000070000000000070008801040104010589
:104FB00001FF00010104010401FC0084010401005F
:104FC00001800000000000CC012401240124012400
:104FD0000198000000000100010007F8010401042D
:104FE00000000000010001F80004000400040108B2
:104FF00001FC0004010001800170000C0010016040
:105000000180010001F0010C003001C00030010CF2
:1050100001F0010000000104018C00740170018C9A
:1050200001040000010101810171000E00180160FE
:105030000180010000000184010C0134014401845D
:10504000010C0000000000000000000001003EFC18
:10505000400240020000000000000000FFFF0000CE
:10506000000000000000400240023EFC0100000081
:105070000000000000006000800080004000400050
:1050800020002000000000000000000000000000E0
:105090000000000000000000000000000000000010
:1050A0000000000000000000000000000000000000
:1050B000000000000000000F80380FFE380F80381D
:1050C00000000000000000000000000000000000E0
:1050D00000000100000600000C0000380000310054
:1050E000000600000C000038000030000000000046
:1050F0000000000061800067F807F980006180000F
:1051000061800061800061800067F807F9800061BC
:105110008000000000000000000001C0E003E0F09B
:105120000630080418081FFFFE040E080787F00366
:1051300081E000000000000001F000060C00040403
:1051400008060C7001F9C0000E00003BE000EC18EE
:10515000070808040C180003E00000000001E0004C
:1051600007F003F818041C0804170807E1D003C06F
:10517000E00023B0003C0800200800001000000000
:105180000000000100003100003200001C0000009F
:10519000000000000000000000000000000000000F
:1051A00000000000000000000000000000000000FF
:1051B000000000007F0001FFC00780F00C00181005
:1051C0000004200002000000000000200002100087
:1051D000040C00180780F001FFC0007F00000000F1
:1051E00000000000000000000000000000000000BF
:1051F0004200006600006600003C0000180003FF4B
:10520000C0001800003C000066000066000042007C
:10521000000000000800000800000800000800006E
:10522000080001FFC0000800000800000800000896
:105230000000080000000000000100003100003202
:1052400000001C0000000000000000000000000042
:10525000000000000000000000000000080000083E
:105260000000080000080000080000080000080016
:105270000008000008000008000000000000000016
:105280000000000038000038000038000000000076
:10529000000000000000000000000000000000000E
:1052A00000000000000600001C00007000018000EB
:1052B0000E0000380000C0000700001C0000300095
:1052C00000000000000000007F8001FFE00380700C
:1052D0000600180400080400080600180380700186
:1052E000FFE0007F800000000000000000000100DF
:1052F0000801000801000803FFF807FFF800000894
:10530000000008000008000000000000000000018C
:10531000C03802C05804009804011804021804049C
:1053200018061C1803F81801E0F80000000000003F
:1053300000000001C0E003C0F004000804080804F5
:10534000080806180803F41801E7F00001E000005F
:1053500000000000000000000300000D000011002C
:1053600000610000810803010807FFF80FFFF80043
:1053700001080001080000000000000000E007FC38
:10538000D006080806100806100806100806183887
:10539000060FF00607C0000000000000000000003B
:1053A0003F8001FFE0038430020818041008041055
:1053B00008041008071810030FF00007C0000000D1
:1053C00000000000000003C0000700000600000607
:1053D00000F80607F806180006E0000700000600BF
:1053E0000000000000000001E1E003F7F0063410C7
:1053F000041808041808040C08040C0806161803FE
:10540000F3F001C1E000000000000000F80003FC20
:1054100030030638040208040208040208040410D9
:105420000308F001FFC0007F000000000000000042
:105430000000000000000000000000007038007054
:10544000380070380000000000000000000000007C
:10545000000000000000000000000000000000004C
:10546000301A00301C0000000000000000000000A6
:105470000000000000000000000000080000140010
:105480000022000041000080800100400200200452
:1054900000100800080000000000000021000021AA
:1054A0000000210000210000210000210000210057
:1054B0000021000021000021000000000000000089
:1054C00000000800080400100200200100400080D5
:1054D00080004100002200001400000800000000CD
:1054E00000000003C00004C00004000008003808E9
:1054F0000F380808380810000C300007E00003C01F
:1055000000000000000000003F8000FFE00380700A
:10551000020F1006708804C088048308047F880284
:10552000C09003012000FE400000080000180001A8
:10553000F8003E0801C20007020007E20000FE007A
:10554000001FC80001F80000380000080400080728
:10555000FFF807FFF804080804080804080804080E
:105560000806180803F41801E7F00001E000000045
:10557000000000003F8001FFE0038070020018047B
:10558000000804000804000804001006002007803A
:10559000C000000004000807FFF807FFF804000837
:1055A00004000804000804001802001003807001C1
:1055B000FFE0007F8000000004000807FFF807FFFD
:1055C000F8040808040808040808040808043E0849
:1055D000040008060018010060000000040008072D
:1055E000FFF807FFF804080804080004080004088E
:1055F00000043E00060000060000018000000000DC
:10560000000000003F8001FFE003807006001804E6
:1056100000080402080402080203F00783F00002F5
:105620000000020004000807FFF807FFF80408085C
:10563000000800000800000800000800040808072F
:10564000FFF807FFF8040008000000000000040055
:105650000804000804000807FFF807FFF804000822
:105660000400080400080000000000000000000022
:10567000000600000700000104000104000104000E
:105680000307FFFE07FFFC04000004000004000005
:1056900004000807FFF807FFF8040C0800180000D2
:1056A0003E0004C7800503C80600F8040038040063
:1056B0001800000804000807FFF807FFF8040008B6
:1056C00000000800000800000800000800000800B2
:1056D000001800006000000004000807FFF80780C1
:1056E0000807FC00007FC00003F80007C000780036
:1056F00007800807FFF807FFF80400080400080700
:10570000FFF807000803C00000E000003800001E9A
:10571000000007000001C00400F007FFF8040000CB
:10572000000000007F8001FFE00380700600180485
:10573000000804000806001803003001FFE0007FA5
:105740008000000004000807FFF807FFF8040408C1
:10575000040400040400040400040400060C000314
:10576000F80001F000000000000000007F8001FF51
:10577000E00380700600880400880400C806003C2E
:1057800003003E01FFE6007F8400000004000807DC
:10579000FFF807FFF8040808040800040C00040FD1
:1057A00000040BC00610F003F03801E00800000808
:1057B00000000001E0F803F030063010041808047F
:1057C0001808040C08040C080206180207F00781E8
:1057D000E00000000180000600000400000400005A
:1057E00004000807FFF807FFF8040008040000049D
:1057F000000006000001800004000007FFE007FF32
:10580000F00400180000080000080000080000086C
:1058100000000804001007FFE00400000400000678
:10582000000007E00007FE00041FE00001F8000090
:10583000380001E0043E0007C0000600000400003C
:1058400004000007E00007FFC0041FF80007C007BE
:10585000F80007FF80043FF80007C004F8000700C5
:105860000004000000000004000806001807C078CB
:1058700005F1C8003E00001F800463E80780F806B9
:105880000018040008000000040000060000078063
:105890000007E008047C08001FF80007F80018085B
:1058A00004E00807000006000004000000000001FA
:1058B00000080600380400F80403E8040F08047C1C
:1058C0000805F00807C00807001804006000000081
:1058D0000000000000000000000000000000003F89
:1058E000FFFE200002200002200002200002200013
:1058F0000200000000000000000008000007000097
:1059000000C0000038000006000001C000003000A8
:10591000000E000001000000000000000000200058
:10592000022000022000022000022000023FFFFEB1
:105930000000000000000000000000000000000067
:1059400000000000000800001000003000002000EF
:1059500000300000100000080000000000000000FF
:105960000000010000010000010000010000010032
:105970000001000001000001000001000001000022
:1059800001000001000000000000000000200000F5
:1059900020000010000010000000000000000000C7
:1059A00000000000000000000000000000F00019EE
:1059B000F8001B1800220800260800240800241004
:1059C000003FF8001FF80000080000180000000465
:1059D000000007FFF80FFFF0001818001008002063
:1059E00008002008003018001FF0000FC000000061
:1059F0000000000007C0001FF00018300020080061
:105A00002008002008003C08001C10000060000076
:105A1000000000000000000007C0001FF000381860
:105A200000200800200800200804101007FFF80FCD
:105A3000FFF0000010000000000000000000000760
:105A4000C0001FF0001230002218002208002208B7
:105A5000003208001E10000E2000000000000000B0
:105A6000200000200800200801FFF803FFF80620AE
:105A7000080420080420080720000300000000009C
:105A800000000000000E000E6E001FF30031B10098
:105A900020B10020B1003191001F13002E1E002004
:105AA0000E00300000000004000807FFF80FFFF8A8
:105AB000001008002000002000002008003FF8002F
:105AC0001FF8000008000000000000000000002097
:105AD00008002008002008063FF8063FF8000008EC
